:1000000039C073C050C0B0C204C34DC04CC04BC057
:100010004AC049C048C047C046C045C044C043C0AC
:1000200042C041C040C000CDD914F13C28E5A16CCC
:1000300078B5509D89440E03490052002F004C00B2
:10004000430044000403090409021900010100806F
:10005000280904000001FF000000070581000800D6
:100060000012010101FF000008EB03020003010080
:100070000200010011241FBECFEDCDBF10E0A0E6AD
:10008000B0E0E0EDF7E003C0C89531960D92A436DC
:10009000B107D1F710E0A4E6B0E001C01D92A93B82
:1000A000B107E1F776C3ACCFDC019FEF8FEF660FAE
:1000B000B9F046E2F0E0229560FF2D91E82FE227AB
:1000C000EF70929582958F70392F307F832B9F70C0
:1000D000E40F359193273170932783276A9559F759
:1000E000809590958D939D9308950F931F932F93D3
:1000F000DF93CF930FB70F938299FECF82990BC0F6
:10010000829909C0829907C0829905C0829903C06B
:1001100000E40ABFA8C0C091A100DD27CE55DF4F83
:100120000BE014E124E0829BE9CF3F934F936F9360
:1001300060B330E803C060B3432B49934427647134
:100140002627215020B32471A9F137953C3FA0F513
:100150006227615060B3647137953C3F98F526275C
:100160002150379520B324713C3F90F562276150B0
:1001700037953C3F60B36471A0F526272150379531
:100180003C3FC8F520B324716227615037953C3F4E
:10019000B0F50A9560B37AF064712627215037953F
:1001A0003C3F88F520B324716227615037953C3F6E
:1001B00010F22DC031C048C0612720B324713F77B1
:1001C0004160C6CF3F77426060B364712127C7CFDB
:1001D0003F774460612720B32471622761503795CF
:1001E000C8CF3F7748602127316060B3647126270C
:1001F00021503795C6CF3F7740616127C1CF3F7708
:1002000040622127C4CF3F7740646127C9CF3F7741
:100210004068212700C08FCF30E43ABF0B500195D2
:10022000033090F0C01B2881233C91F12B3481F1E5
:1002300019811F774091B800141731F42936D9F08D
:100240002D3249F0213E39F04427409364006F91EC
:100250004F913F9108C0209364006F914F913F915F
:100260000AB706FD49CF0F910FBFCF91DF912F91B4
:100270001F910F911895009193000023F1F0409188
:10028000A0004423D1F440939300C4E9D0E018C007
:10029000209164002223C1F24091A000442369F41C
:1002A0000093A00020939F000091A1004BE0401B11
:1002B0004093A100C0E6D0E002C0C1E6D0E001E07A
:1002C00022B32B7E206111B3146122BB11BB14E158
:1002D00030E830FF212722BB379547954C3FC0F5CA
:1002E00030FF2127379522BB47954C3FA8F530FFBB
:1002F00021273795000022BB47954C3F78F530FF0A
:1003000021273795000022BB47954C3F48F530FF29
:100310002127699122BB379547954C3F18F530FF4F
:100320002127379522BB47954C3F00F530FF212709
:100330003795479522BB4C3FD8F430FF212737959E
:10034000362F479522BB4C3FA8F40A9512F614C0ED
:100350002127442722BBC2CF2127C5CF2127CBCFBE
:100360002127D1CF2127442722BBD7CF2127DACF7E
:100370002127DFCF2127E5CF2B7E22BB6F914F9125
:100380003F9100E40ABFDF91CF9111B3022F2061AA
:1003900022BB1B7EDFBFDF912F91000011BB02BB90
:1003A0001F910F91189585B7836085BF8BB78064C7
:1003B0008BBF789408950F931F93CF93DF93609131
:1003C000A000662309F46FC08091A1009927CC2773
:1003D000DD27C81BD90BC255DF4F635091E09093C6
:1003E000650010E080919F008D3209F04EC00E81B3
:1003F0008F8181110FEF88818076B1F58981882303
:1004000019F412E0888339C0853021F48A81809301
:10041000690036C08630F9F482E0809365008B81F4
:10042000813021F4C1E6D0E012E127C0823021F40E
:10043000C8E4D0E019E121C0833011F58A81882316
:1004400021F4C4E4D0E014E018C08230C9F4C6E35B
:10045000D0E01EE012C0883011F4988303C08A30C7
:1004600079F41883192F09C08C2F9D2F2DD1182FA7
:100470008F3F19F483E080936500011708F4102F73
:10048000D0936800C093670005C0662319F08C2FD5
:100490009D2F6BD11093660083EC80939400109293
:1004A00093001092A00030919300332309F04CC0C8
:1004B00020916500222309F443C08091940098E8BC
:1004C000892780939400C0916600C93008F0C8E085
:1004D000A5E9B0E0CC2339F1233031F46C2F8A2F19
:1004E0009B2F1CD1C82F1AC0E0916700F0916800C3
:1004F000213039F4932F9C1768F481918D939F5F7D
:10050000FACF932F9C1730F4C895802D31968D9398
:100510009F5FF8CFF0936800E093670080916600DA
:100520008C1B809366006C2F85E990E0BDDDCD5F6C
:10053000C0939300C350C83038F41092650004C0D3
:10054000809169008093B8008AE0849908C0815046
:1005500011F0849BFCCF882311F480936900DF9114
:10056000CF911F910F9108957F937FB72F933F9362
:100570008F939F9324B535B519BE8EB590E4892726
:100580008EBD7894959A4F935F93EF93FF938091EC
:100590006A0090916B00532F422F481B590B952FE7
:1005A000842F805C9F4F880F892F881F990B91950E
:1005B000982F30936B0020936A002A57324C3BBD32
:1005C0002ABDF89420916C002F3F99F0243208F056
:1005D0002051809162008F3F49F410926D002223D8
:1005E00029F0E22FFF27E359FF4F92832F5F2093DB
:1005F0006C0078940000FF91EF915F914F91F89417
:1006000088E489BF9F918F913F912F917FBF7F9108
:1006100018951F920F920FB60F9211248F939F93EC
:1006200019BE78949598F89490916C00943070F07D
:100630009F3F61F0809162008F3F41F480916E0096
:100640008F5F80936E00915090936D0010926C00BC
:1006500078948EB58F7B8EBDF89488E489BF9F9186
:100660008F910F900FBE0F901F90189590EF00C0C4
:100670009A95E9F78A95D1F7089598B3907F982BCA
:1006800098BBC69A8FE787BBC69880E787BB08955B
:1006900098B380E288BBC69A00C086B38F7098BBBF
:1006A000992708951F93CF93C82FF2DF182FF0DFFB
:1006B00013FDFBCF8C2F82958F70DFDF8C2F8F7017
:1006C000DCDFCF911F910895F92FE82F90E0818111
:1006D000882311F498E01FC0813031F490936D00AD
:1006E0008FEF8093620017C0823071F4F89480918C
:1006F0006D00882329F08481809362009FEF02C0FF
:10070000808391E0789407C0843111F4C49803C0C9
:10071000853109F4C49A892F9927089520916D0095
:100720002D5F30E03617F0F44FEFB92FA82F8091EE
:100730006200821758F0F89480916C00882311F0C1
:1007400040936C004093620078940CC0E82FFF2720
:10075000E359FF4F8F5F8093620080818D933F5FED
:10076000361728F3832F992708950F931F93CF935C
:10077000082F192FC62F662341F0F12FE02F81910A
:100780000E2F1F2F8FDFC150C1F7CF911F910F91F7
:100790000895939A8B9A80E787BB18BA83E06DDF40
:1007A00089E264DF83E069DF81E060DF82E37ADF92
:1007B00088E278DF81E076DF86E074DF8CE072DF4C
:1007C000F2DD8D9A82E88EBD88E489BFF4DDFECF2C
:0407D000D25AFF00FA
:00000001FF
