:1000000051C084C05DC0F4C246C35AC059C058C074
:1000100057C056C055C054C053C052C051C050C044
:100020004FC04EC04DC000CDD914F13C28E5A16CA5
:1000300078B5509D89440902190001010080280902
:1000400004000001FF000000070581000800001205
:10005000010101FF000008EB03020007010102009B
:1000600001040309041E0355005300420074006993
:10007000006E0079002000490052002F004C004320
:1000800000440020034400690063006B002000531B
:1000900000740072006500650066006C0061006E0F
:1000A0000064000011241FBECFEDCDBF10E0A0E61C
:1000B000B0E001C01D92A93BB107E1F77ED39DC31B
:1000C0009FCFDC019FEF8FEF46E2F0E018C02D914B
:1000D0008227E82FEF70E40F3591E82FE295892F02
:1000E000932F3170E327EF709295392F9F70307EF8
:1000F0008327E40F359193273170932783276A95DF
:1001000032F7809590958D939D9308950F931F934B
:100110002F93DF93CF930FB70F938299FECF8299DE
:100120000BC0829909C0829907C0829905C0829943
:1001300003C000E40ABFACC0C091A100DD27CE55CA
:10014000DF4F0BE014E124E0829BE9CF3F934F9314
:100150006F9360B330E803C060B3432B49934427E7
:1001600064712627215020B32471A9F137953C3FB3
:10017000A0F56227615060B3647137953C3F98F5F4
:1001800026272150379520B324713C3F90F56227F4
:10019000615037953C3F60B36471A0F5262721502C
:1001A00037953C3FC8F520B32471622761503795DD
:1001B0003C3FB0F50A9560B37AF064712627215070
:1001C00037953C3F88F520B32471622761503795FD
:1001D0003C3F10F22DC031C052C0612720B32471C2
:1001E0003F774160C6CF3F77426060B3647121279B
:1001F000C7CF3F774460612720B3247162276150E5
:100200003795C8CF3F7748602127316060B364716C
:10021000262721503795C6CF3F7740616127C1CF50
:100220003F7740622127C4CF3F7740646127C9CF21
:100230003F774068212700C08FCF30E43ABF0B5092
:100240000195C01BD040288121FD2DC019811F7749
:100250004091B800141799F4293691F40091910057
:100260000023F1F04091A0004423D1F44093910089
:1002700040919D004093B800C2E9D0E02BC02227F6
:10028000209360006F914F913F910AB706FD45CFD3
:100290000F910FBFCF91DF912F911F910F91189563
:1002A000CEE9D0E016C0217059F3209160002223DE
:1002B00039F34091A000442399F70093A0002093C4
:1002C0009F000091A1004BE0401B4093A100C0E9BA
:1002D000D0E001E022B32B7E206111B3146122BB78
:1002E00011BB14E130E830FF212722BB3795479539
:1002F0004C3FC0F530FF2127379522BB47954C3F37
:10030000A8F530FF21273795000022BB47954C3FC9
:1003100078F530FF21273795000022BB47954C3FE9
:1003200048F530FF2127699122BB379547954C3F0F
:1003300018F530FF2127379522BB47954C3F00F534
:1003400030FF21273795479522BB4C3FD8F430FF2B
:1003500021273795362F479522BB4C3FA8F40A95A5
:1003600012F614C02127442722BBC2CF2127C5CFB4
:100370002127CBCF2127D1CF2127442722BBD7CF7D
:100380002127DACF2127DFCF2127E5CF2B7E22BB04
:100390006F914F913F9100E40ABFDF91CF9111B36C
:1003A000022F206122BB1B7EDFBFDF912F91000057
:1003B00011BB02BB1F910F91189585B7836085BF54
:1003C0008BB780648BBF8D9A939A8B9A82ED8093C2
:1003D00090008AE580939E00789408951F93CF93B0
:1003E000DF936091A000662309F475C08091A1009D
:1003F000CCE0D0E0C81BD109CE55DF4F81E080931F
:10040000640080919F008D3209F057C01E818F815A
:1004100081111FEF8881807679F58981811104C06F
:100420001882198282E041C0853029F48A81809344
:100430009D00959A39C08630A9F482E080936400CB
:100440008B81813009F1823019F1833069F58A811D
:10045000882311F1813021F1823031F58EE1C5E63A
:10046000D0E023C0883019F481E088831EC08A3030
:10047000D9F4188281E019C0CE013AD18F3FA9F496
:1004800083E08093640013C082E1CFE4D0E00DC02C
:1004900089E1C6E3D0E009C084E0C1E6D0E005C050
:1004A00080E2C3E8D0E001C080E0811708F0812F2E
:1004B000D0936200C093610005C0635011F0CE017B
:1004C00064D180E08093630083EC8093920010926B
:1004D00091001092A00080919100811150C08091F4
:1004E0006400882309F44BC09091920028E8922779
:1004F0009093920010916300193018F4112399F130
:1005000001C018E0833031F4612F83E990E017D106
:10051000182F24C0E0916100F0916200813081F4D5
:10052000DF0143E950E0EA019D012F5F3F4FF901F0
:100530008C9189938C2F841B811760F4D901F4CF9F
:1005400023E930E0D90184918D9331968A2F821B63
:100550008117C8F3F0936200E0936100809163001B
:10056000811B80936300612F83E990E0AADD83E023
:10057000810F80939100183010F4109264008AE08B
:10058000849907C08150E1F710929D001092B80045
:100590009598DF91CF911F91089598B3907F982BF4
:1005A00098BBC69A8FE787BBC69880E787BB08953C
:1005B000CF93C82F80E228B388BBC69A00C096B3F9
:1005C00028BB28B388BBC69A00C036B328BB93FDAE
:1005D000F2CF8C2F82958F70E0DF8C2F8F70CF91B0
:1005E000DCCF90EF00C09A95E9F78A95D1F708958E
:1005F0001F920F920FB60F9211242F938F939F93F8
:10060000EF93FF9319BE78948EB590E489278EBD41
:1006100084B595B5E0916500F09166008F939F9346
:10062000805C9F4F8E1B9F0B880F892F881F990B13
:100630009195282F9F918F919093660080936500EC
:100640008A57924C9BBD8ABDF89480918E008F3F53
:1006500099F0853208F0805190918F009F3F49F4C6
:1006600010926700882329F0E82FF0E0E959FF4F46
:1006700022838F5F80938E007894959A88E4F89413
:1006800089BFFF91EF919F918F912F910F900FBE96
:100690000F901F9018951F920F920FB60F92112472
:1006A0008F939F9319BE78949598F89490918E00AB
:1006B0008CEF890F8B3F60F480918F008F3F41F466
:1006C000809168008F5F80936800915090936700DD
:1006D00010928E0078948EB58F7B8EBDF89488E44E
:1006E00089BF9F918F910F900FBE0F901F9018950B
:1006F000FC018181882309F1813031F41092670077
:100700008FEF80938F0017C0823071F4F89480913E
:100710006700882329F0828180938F008FEF02C0C9
:10072000108281E078940895843111F4C49803C054
:10073000853109F4C49A80E0089588E008952091F5
:1007400067002D5F30918F00DC0180E0E82FE30F20
:100750008617C1F0E21778F0E0938F00F89490913B
:100760008E00992319F09FEF90938E009FEF909346
:100770008F00789408958F5FF0E0E959FF4F9081E2
:100780009D93E4CFE0938F0008950F931F93CF9331
:10079000DF931F92CDB7DD278C01662341F0F8016E
:1007A00081918F01698304DF69816150F6CF0F90D9
:1007B000DF91CF911F910F9108958FED8DBF8FEF36
:1007C00080938F0080E787BB18BA83E0E6DE09DFFD
:1007D00083E0E3DE06DF82E3EBDE88E2E9DE81E050
:1007E000E7DE86E0E5DE8CE0E3DE8D9A82E88EBD12
:0E07F00088E489BFE2DDF2DDFECFF894FFCF92
:00000001FF
