:100000004AC07DC056C055C054C053C052C051C034
:1000100050C04FC04EC04DC04CC04BC04AC049C07C
:1000200048C047C046C000CDD914F13C28E5A16CBA
:1000300078B5509D894409021200010100803209FF
:1000400004000000FF00000012010101FF00000891
:1000500081179F0C07010102000104030904180322
:10006000550053004200740069006E0079002000C2
:1000700053005000490020034400690063006B00F6
:1000800020005300740072006500650066006C007B
:1000900061006E00640011241FBECFEDCDBF10E0E3
:1000A000A0E6B0E001C01D92AE39B107E1F79CD3E4
:1000B0009EC3A6CFDC019FEF8FEF46E2F0E018C0B1
:1000C0002D918227E82FEF70E40F3591E82FE2950C
:1000D000892F932F3170E327EF709295392F9F70FE
:1000E000307E8327E40F3591932731709327832740
:1000F0006A9532F7809590958D939D9308950F930F
:100100001F932F93DF93CF930FB70F938299FECF57
:1001100082990BC0829909C0829907C0829905C053
:10012000829903C000E40ABFACC0C0918600DD27FD
:10013000C957DF4F0BE014E124E0829BE9CF3F93E6
:100140004F936F9360B330E803C060B3432B499380
:10015000442764712627215020B32471A9F13795D3
:100160003C3FA0F56227615060B3647137953C3F16
:1001700098F526272150379520B324713C3F90F500
:100180006227615037953C3F60B36471A0F5262724
:10019000215037953C3FC8F520B324716227615048
:1001A00037953C3FB0F50A9560B37AF06471262725
:1001B000215037953C3F88F520B324716227615068
:1001C00037953C3F10F22DC031C052C0612720B39B
:1001D00024713F774160C6CF3F77426060B364715E
:1001E0002127C7CF3F774460612720B3247162275E
:1001F00061503795C8CF3F7748602127316060B3A1
:100200006471262721503795C6CF3F77406161271B
:10021000C1CF3F7740622127C4CF3F774064612739
:10022000C9CF3F774068212700C08FCF30E43ABF65
:100230000B500195C01BD040288121FD2DC0198194
:100240001F7740919D00141799F4293691F400917D
:1002500076000023F1F0409185004423D1F44093CF
:1002600076004091820040939D00C7E7D0E02BC00C
:100270002227209360006F914F913F910AB706FDAE
:1002800045CF0F910FBFCF91DF912F911F910F910C
:100290001895C3E8D0E016C0217059F32091600092
:1002A000222339F340918500442399F70093850078
:1002B00020938400009186004BE0401B4093860011
:1002C000C5E7D0E001E022B32B7E206111B31461B9
:1002D00022BB11BB14E130E830FF212722BB379548
:1002E00047954C3FC0F530FF2127379522BB4795F6
:1002F0004C3FA8F530FF21273795000022BB4795DA
:100300004C3F78F530FF21273795000022BB4795F9
:100310004C3F48F530FF2127699122BB379547951F
:100320004C3F18F530FF2127379522BB47954C3FAE
:1003300000F530FF21273795479522BB4C3FD8F475
:1003400030FF21273795362F479522BB4C3FA8F425
:100350000A9512F614C02127442722BBC2CF2127B9
:10036000C5CF2127CBCF2127D1CF2127442722BB9F
:10037000D7CF2127DACF2127DFCF2127E5CF2B7E4B
:1003800022BB6F914F913F9100E40ABFDF91CF9163
:1003900011B3022F206122BB1B7EDFBFDF912F91A3
:1003A000000011BB02BB1F910F91189585B78360A8
:1003B00085BF8BB780648BBF82ED809375008AE523
:1003C00080938300789408951F93CF93DF93609177
:1003D0008500662309F474C080918600CCE0D0E0EB
:1003E000C81BD109C957DF4F81E080936400809119
:1003F00084008D3209F056C01E818F8181111FEF5C
:100400008881807671F58981811104C018821982F2
:1004100082E040C0853021F48A818093820039C017
:100420008630A9F482E0809364008B81813009F1E9
:10043000823019F1833069F58A81882311F1813086
:1004400021F1823031F588E1CEE5D0E023C088305B
:1004500019F481E088831EC08A30D9F4188281E0C3
:1004600019C0CE01E4D08F3FA9F483E080936400EB
:1004700013C082E1C8E4D0E00DC082E1C6E3D0E061
:1004800009C084E0CAE5D0E005C080E2C6E7D0E05C
:1004900001C080E0811708F0812FD0936200C093E3
:1004A000610005C0635011F0CE0154D180E080930B
:1004B000630083EC809377001092760010928500A1
:1004C00080917600811150C080916400882309F4E6
:1004D0004BC09091770028E8922790937700109175
:1004E0006300193018F4112399F101C018E083302A
:1004F00031F4612F88E790E00CD1182F24C0E091EF
:100500006100F0916200813081F4DF0148E750E042
:10051000EA019D012F5F3F4FF9018C9189938C2F48
:10052000841B811760F4D901F4CF28E730E0D901AA
:1005300084918D9331968A2F821B8117C8F3F09393
:100540006200E093610080916300811B80936300EF
:10055000612F88E790E0AEDD83E0810F8093760025
:10056000183010F4109264008AE0849906C081501B
:10057000E1F71092820010929D00DF91CF911F91C0
:100580000895CF93DF93FB01AC014C5F5F4FEC010B
:10059000A991CE0128E030E070E860E0B72FBA23DF
:1005A00009F0C79AB09174000B2E00C000000A94A5
:1005B000E1F7C69AB09174000B2E00C000000A94B7
:1005C000E1F7660F83996F5FC798C69876952150BB
:1005D00031092115310511F7619384179507B9F693
:1005E000DF91CF91089580917000909171009C01EE
:1005F0002F5F3F4F309371002093700020916D006A
:1006000027FF02C0880F991F80FD28602093690092
:100610009C01232F3327269520936A009695879572
:1006200080936B0065E670E089E690E0AACFFC015C
:100630002181222309F46BC04481A42FB0E0213032
:1006400021F48C91808381E008953281223011F46D
:100650003C935BC0532F577081E090E0052E01C0A2
:10066000880F0A94EAF7233021F480959C9198230F
:1006700004C0243021F49C91982B9C9346C02530D3
:1006800059F430937400411102C08FE001C08FE231
:100690009FEF97BB88BB39C0263021F4C59A18BAA2
:1006A00017BA33C088B3882381F1273031F4BF01F2
:1006B000CF01029666DF84E00895283031F430934C
:1006C000730083818093720020C084819581909310
:1006D000710080937000293011F480E203C02B3048
:1006E00029F480EA80936D008FEF089582819381D1
:1006F00090936F0080936E002A3011F480E403C061
:100700002C3019F480EC80936D0080E0089588E02F
:100710000895EF92FF920F931F93CF93DF931F9251
:10072000CDB7DD278C01862F78019E2D901B981761
:1007300048F4898358DF90916800F70191937F0115
:100740008981F3CF0F90DF91CF911F910F91FF908F
:10075000EF900895CF92DF92EF92FF920F931F9345
:10076000CF93DF937C01D62EEC01E0E6CE2E8C2FCA
:100770008E198D1580F5899180936C0034DF8091FE
:1007800069008C258093690000E010E080916E0084
:1007900090916F000817190750F765E670E089E639
:1007A00090E0EFDE8091680090916C00891308C0A2
:1007B00090917300891721F0909172008913D7CF1F
:1007C0002091740030E075E0220F331F7A95E1F735
:1007D000020F131FDBCFDF91CF911F910F91FF907D
:1007E000EF90DF90CF900895E1DDEEDDFECFF8943D
:0207F000FFCF39
:00000001FF
