:1000000039C06CC045C044C043C042C041C040C0BC
:100010003FC03EC03DC03CC03BC03AC039C038C004
:1000200037C036C035C000CDD914F13C28E5A16CED
:1000300078B5509D894409021200010100803209FF
:1000400004000000FF00000012010101FF00000891
:1000500081179F0C07010002000104030904160325
:10006000550053004200740069006E007900490099
:100070005300500011241FBECFEDCDBF10E0A0E60D
:10008000B0E001C01D92AE39B107E1F7A4D3A8C317
:10009000B7CFDC019FEF8FEF46E2F0E018C02D9163
:1000A0008227E82FEF70E40F3591E82FE295892F32
:1000B000932F3170E327EF709295392F9F70307E28
:1000C0008327E40F359193273170932783276A950F
:1000D00032F7809590958D939D9308950F931F937C
:1000E0002F93DF93CF930FB70F938299FECF82990F
:1000F0000BC0829909C0829907C0829905C0829974
:1001000003C000E40ABFACC0C0918600DD27C95718
:10011000DF4F0BE01CE024E0829BE9CF3F934F933D
:100120006F9360B330E803C060B3432B4993442717
:100130006C702627215020B32C70A9F137953C3FD5
:10014000A0F56227615060B36C7037953C3F98F51D
:1001500026272150379520B32C703C3F90F562271D
:10016000615037953C3F60B36C70A0F52627215055
:1001700037953C3FC8F520B32C7062276150379506
:100180003C3FB0F50A9560B37AF06C702627215099
:1001900037953C3F88F520B32C7062276150379526
:1001A0003C3F10F22DC031C052C0612720B32C70EB
:1001B0003F774160C6CF3F77426060B36C702127C4
:1001C000C7CF3F774460612720B32C70622761500E
:1001D0003795C8CF3F7748602127316060B36C7096
:1001E000262721503795C6CF3F7740616127C1CF81
:1001F0003F7740622127C4CF3F7740646127C9CF52
:100200003F774068212700C08FCF30E43ABF0B50C2
:100210000195C01BD040288121FD2DC019811F7779
:1002200040919D00141799F4293691F400917600BD
:100230000023F1F0409185004423D1F440937600EF
:100240004091820040939D00C7E7D0E02BC0222759
:10025000209360006F914F913F910AB706FD45CF03
:100260000F910FBFCF91DF912F911F910F91189593
:10027000C3E8D0E016C0217059F32091600022231A
:1002800039F340918500442399F70093850020932A
:100290008400009186004BE0401B40938600C5E738
:1002A000D0E001E022B3237F286011B31C6022BBA1
:1002B00011BB1CE030E830FF212722BB3795479562
:1002C0004C3FC0F530FF2127379522BB47954C3F67
:1002D000A8F530FF21273795000022BB47954C3FFA
:1002E00078F530FF21273795000022BB47954C3F1A
:1002F00048F530FF2127699122BB379547954C3F40
:1003000018F530FF2127379522BB47954C3F00F564
:1003100030FF21273795479522BB4C3FD8F430FF5B
:1003200021273795362F479522BB4C3FA8F40A95D5
:1003300012F614C02127442722BBC2CF2127C5CFE4
:100340002127CBCF2127D1CF2127442722BBD7CFAD
:100350002127DACF2127DFCF2127E5CF237F22BB3B
:100360006F914F913F9100E40ABFDF91CF9111B39C
:10037000022F286022BB137FDFBFDF912F91000087
:1003800011BB02BB1F910F91189585B7836085BF84
:100390008BB780648BBF8D9A969A8E9A82ED8093EC
:1003A00075008AE580938300789408951F93CF9316
:1003B000DF9360918500662309F46FC08091860009
:1003C000CCE0D0E0C81BD109C957DF4F81E0809352
:1003D0006400809184008D3209F051C01E818F81AC
:1003E00081111FEF8881807669F58981811104C0B0
:1003F0001882198282E03BC0853029F48A8180937B
:100400008200959A33C0863099F482E0809364002C
:100410008B818130F9F0823009F1833039F58A819E
:10042000882301F1823011F586E1CEE5D0E01FC0CE
:10043000883019F481E088831AC08A30B9F41882B0
:1004400081E015C0CE01DCD08F3F89F483E080933A
:1004500064000FC082E1C8E4D0E009C082E1C6E3D5
:10046000D0E005C084E0CAE5D0E001C080E081179B
:1004700008F0812FD0936200C093610005C06350E3
:1004800011F0CE015DD180E08093630083EC809316
:10049000770010927600109285008091760081118D
:1004A00050C080916400882309F44BC0909177007C
:1004B00028E892279093770010916300193018F480
:1004C000112399F101C018E0833031F4612F88E7DE
:1004D00090E015D1182F24C0E0916100F0916200E6
:1004E000813081F4DF0148E750E0EA019D012F5F90
:1004F0003F4FF9018C9189938C2F841B811760F4F5
:10050000D901F4CF28E730E0D90184918D93319659
:100510008A2F821B8117C8F3F0936200E093610079
:1005200080916300811B80936300612F88E790E0D6
:10053000B0DD83E0810F80937600183010F41092C4
:1005400064008AE0839907C08150E1F7109282002D
:1005500010929D009598DF91CF911F910895FB0116
:10056000442341F14150DC017D91CD0128E030E090
:1005700060E850E0A62FA72309F0C59AA091740067
:100580000A2E00C000000A94E1F7C79AA0917400F7
:100590000A2E00C000000A94E1F7550FB6995F5F7C
:1005A000C598C7986695215031092115310511F775
:1005B0005193D6CF089580917000909171009C0165
:1005C0002F5F3F4F309371002093700020916D009A
:1005D00027FF02C0880F991F80FD286020936900C3
:1005E0009C01232F3327269520936A0096958795A3
:1005F00080936B0044E065E670E089E690E0AFCF61
:10060000FC012181222309F478C0213019F486B33A
:10061000808346C03281223011F438BB6CC0432F36
:10062000477081E090E0042E01C0880F0A94EAF739
:10063000233021F498B38095892317C0243021F406
:1006400098B3982B98BB57C02D3011F437BB15C009
:10065000253069F4309374008481811102C081E0F7
:1006600001C081E1949891EB97BB88BB44C02630D0
:1006700021F417BA18BA949A3EC088B38823D9F1E6
:10068000273039F444E0BF01CF01029668DF84E0EF
:1006900008952E3039F441E0BF01CF0102965FDFAB
:1006A00081E00895283039F482818093730083813A
:1006B0008093720020C08481958190937100809313
:1006C0007000293011F480E203C02B3029F480EA55
:1006D00080936D008FEF08958281938190936F00D6
:1006E00080936E002A3011F480E403C02C3019F49A
:1006F00080EC80936D0080E0089588E00895EF928B
:10070000FF920F931F93CF93DF931F92CDB7DD27F7
:100710008C01862F78019E2D901B981748F48983B1
:100720004ADF90916800F70191937F018981F3CFAF
:100730000F90DF91CF911F910F91FF90EF9008954F
:10074000CF92DF92EF92FF920F931F93CF93DF939D
:100750007C01D62EEC01E0E6CE2E8C2F8E198D1565
:1007600088F5899180936C0026DF809169008C2543
:100770008093690000E010E080916E0090916F001E
:100780000817190750F744E065E670E089E690E045
:10079000E6DE8091680090916C00891308C090910A
:1007A0007300891721F0909172008913D6CF2091A0
:1007B000740030E075E0220F331F7A95E1F7020FE5
:1007C000131FDACFDF91CF911F910F91FF90EF9020
:1007D000DF90CF900895949A8C9AD7DDE7DDFECF15
:0407E000F894FFCFBB
:00000001FF
