:1000000054C087C060C05FC05EC05DC05CC05BC0E4
:100010005AC059C058C057C056C055C054C053C02C
:1000200052C051C050C000CDD914F13C28E5A16C9C
:1000300078B5509D89440902120001010080190918
:1000400004000000FF00000012010101FF00000891
:1000500066660100070101020301040309040A03A3
:1000600030003000300031002203550053004200C0
:10007000740069006E0079002000540065006D0076
:1000800070006C006100740065002003440069008A
:1000900063006B002000530074007200650065006F
:1000A00066006C0061006E00640011241FBECFED7D
:1000B000CDBF10E0A0E6B0E001C01D92AE38B107A0
:1000C000E1F764D266C29CCFDC019FEF8FEF46E27E
:1000D000F0E018C02D918227E82FEF70E40F3591E2
:1000E000E82FE295892F932F3170E327EF709295D7
:1000F000392F9F70307E8327E40F3591932731701D
:10010000932783276A9532F7809590958D939D93D9
:1001100008950F931F932F93DF93CF930FB70F93F0
:100120008299FECF82990BC0829909C0829907C03B
:10013000829905C0829903C000E40ABFACC0C09197
:100140007600DD27C958DF4F0BE014E124E0829BE5
:10015000E9CF3F934F936F9360B330E803C060B330
:10016000432B4993442764712627215020B32471DF
:10017000A9F137953C3FA0F56227615060B36471E7
:1001800037953C3F98F526272150379520B32471A9
:100190003C3F90F56227615037953C3F60B36471F6
:1001A000A0F52627215037953C3FC8F520B3247190
:1001B0006227615037953C3FB0F50A9560B37AF0FD
:1001C00064712627215037953C3F88F520B3247170
:1001D0006227615037953C3F10F22DC031C052C0AC
:1001E000612720B324713F774160C6CF3F774260DB
:1001F00060B364712127C7CF3F774460612720B384
:100200002471622761503795C8CF3F774860212716
:10021000316060B36471262721503795C6CF3F7790
:1002200040616127C1CF3F7740622127C4CF3F772C
:1002300040646127C9CF3F774068212700C08FCF36
:1002400030E43ABF0B500195C01BD040288121FDFE
:100250002DC019811F7740918D00141799F429360C
:1002600091F4009166000023F1F040917500442361
:10027000D1F4409366004091720040938D00C7E630
:10028000D0E02BC02227209360006F914F913F91C7
:100290000AB706FD45CF0F910FBFCF91DF912F9188
:1002A0001F910F911895C3E7D0E016C0217059F344
:1002B00020916000222339F340917500442399F77F
:1002C0000093750020937400009176004BE0401B72
:1002D00040937600C5E6D0E001E022B32B7E20619A
:1002E00011B3146122BB11BB14E130E830FF2127A8
:1002F00022BB379547954C3FC0F530FF21273795F6
:1003000022BB47954C3FA8F530FF212737950000C9
:1003100022BB47954C3F78F530FF212737950000E9
:1003200022BB47954C3F48F530FF2127699122BBFE
:10033000379547954C3F18F530FF2127379522BB5D
:1003400047954C3F00F530FF21273795479522BB55
:100350004C3FD8F430FF21273795362F479522BBE5
:100360004C3FA8F40A9512F614C02127442722BB5B
:10037000C2CF2127C5CF2127CBCF2127D1CF2127FE
:10038000442722BBD7CF2127DACF2127DFCF212750
:10039000E5CF2B7E22BB6F914F913F9100E40ABFC6
:1003A000DF91CF9111B3022F206122BB1B7EDFBFF3
:1003B000DF912F91000011BB02BB1F910F91189587
:1003C00085B7836085BF8BB780648BBF8D9A939A06
:1003D0008B9A82ED809365008AE580937300789410
:1003E00008951F93CF93DF9380917500882309F4BC
:1003F00072C08091760091E09093640090917400B7
:100400009D3209F05EC0CCE0D0E0C81BD109C958CC
:10041000DF4F1E818F8181111FEF8881807689F5E2
:100420008981811104C01882198282E042C085301E
:1004300029F48A8180937200959A3AC08630B9F483
:1004400082E0809364008B818130F1F0823001F191
:10045000833071F58A818823F9F0813009F1823087
:1004600019F1833029F58AE0CEE5D0E022C088304A
:1004700019F481E088831DC08A30D1F4188281E0AC
:1004800018C0CE0181D015C082E1C8E4D0E011C00F
:1004900082E1C6E3D0E00DC084E0CAE5D0E009C047
:1004A00080E2CAE8D0E005C082E2C8E6D0E001C040
:1004B00080E0181708F4812FD0936200C093610088
:1004C00001C080E08093630083EC8093670010920A
:1004D00066001092750080916600811147C090916E
:1004E0006400992309F442C08091670028E88227BC
:1004F0008093670010916300193020F4112351F1AB
:10050000412F01C048E0E0916100F091620091301C
:1005100079F4DF0128E630E0E901CD010196FC0124
:100520005C9159935C2F521B541760F4DC01F5CF9A
:1005300088E690E0DC0124912D9331962A2F281B28
:100540002417C8F3F0936200E0936100141B10932A
:100550006300142F612F88E690E0B6DD83E0810F01
:1005600080936600183011F0109264008AE084993C
:1005700007C08150E1F71092720010928D0095989B
:10058000DF91CF911F91089588E0089519DF29DF49
:06059000FECFF894FFCF3E
:00000001FF
